{
  "_format": "hh-sol-artifact-1",
  "contractName": "SupplyChain",
  "sourceName": "contracts/SupplyChain.sol",
  "abi": [
    {
      "inputs": [],
      "stateMutability": "nonpayable",
      "type": "constructor"
    },
    {
      "anonymous": false,
      "inputs": [
        {
          "indexed": true,
          "internalType": "uint256",
          "name": "id",
          "type": "uint256"
        },
        {
          "indexed": false,
          "internalType": "string",
          "name": "name",
          "type": "string"
        },
        {
          "indexed": false,
          "internalType": "uint256",
          "name": "timestamp",
          "type": "uint256"
        }
      ],
      "name": "DistributorAdded",
      "type": "event"
    },
    {
      "anonymous": false,
      "inputs": [
        {
          "indexed": true,
          "internalType": "uint256",
          "name": "id",
          "type": "uint256"
        },
        {
          "indexed": false,
          "internalType": "string",
          "name": "name",
          "type": "string"
        },
        {
          "indexed": false,
          "internalType": "uint256",
          "name": "timestamp",
          "type": "uint256"
        }
      ],
      "name": "ManufacturerAdded",
      "type": "event"
    },
    {
      "anonymous": false,
      "inputs": [
        {
          "indexed": true,
          "internalType": "uint256",
          "name": "materialId",
          "type": "uint256"
        },
        {
          "indexed": false,
          "internalType": "string",
          "name": "name",
          "type": "string"
        },
        {
          "indexed": false,
          "internalType": "uint256",
          "name": "vendorId",
          "type": "uint256"
        },
        {
          "indexed": false,
          "internalType": "uint256",
          "name": "quantity",
          "type": "uint256"
        },
        {
          "indexed": false,
          "internalType": "uint256",
          "name": "timestamp",
          "type": "uint256"
        }
      ],
      "name": "MaterialAdded",
      "type": "event"
    },
    {
      "anonymous": false,
      "inputs": [
        {
          "indexed": true,
          "internalType": "uint256",
          "name": "materialId",
          "type": "uint256"
        },
        {
          "indexed": false,
          "internalType": "uint256",
          "name": "quantity",
          "type": "uint256"
        },
        {
          "indexed": false,
          "internalType": "uint256",
          "name": "vendorId",
          "type": "uint256"
        },
        {
          "indexed": false,
          "internalType": "uint256",
          "name": "timestamp",
          "type": "uint256"
        }
      ],
      "name": "MaterialRestocked",
      "type": "event"
    },
    {
      "anonymous": false,
      "inputs": [
        {
          "indexed": true,
          "internalType": "uint256",
          "name": "productId",
          "type": "uint256"
        },
        {
          "indexed": false,
          "internalType": "uint256",
          "name": "materialId",
          "type": "uint256"
        },
        {
          "indexed": false,
          "internalType": "uint256",
          "name": "quantity",
          "type": "uint256"
        },
        {
          "indexed": false,
          "internalType": "uint256",
          "name": "timestamp",
          "type": "uint256"
        }
      ],
      "name": "MaterialsAssignedToProduct",
      "type": "event"
    },
    {
      "anonymous": false,
      "inputs": [
        {
          "indexed": true,
          "internalType": "uint256",
          "name": "productId",
          "type": "uint256"
        },
        {
          "indexed": false,
          "internalType": "string",
          "name": "name",
          "type": "string"
        },
        {
          "indexed": false,
          "internalType": "uint256",
          "name": "targetQuantity",
          "type": "uint256"
        },
        {
          "indexed": false,
          "internalType": "uint256",
          "name": "timestamp",
          "type": "uint256"
        }
      ],
      "name": "ProductCreated",
      "type": "event"
    },
    {
      "anonymous": false,
      "inputs": [
        {
          "indexed": true,
          "internalType": "uint256",
          "name": "id",
          "type": "uint256"
        },
        {
          "indexed": false,
          "internalType": "string",
          "name": "name",
          "type": "string"
        },
        {
          "indexed": false,
          "internalType": "uint256",
          "name": "timestamp",
          "type": "uint256"
        }
      ],
      "name": "RetailerAdded",
      "type": "event"
    },
    {
      "anonymous": false,
      "inputs": [
        {
          "indexed": true,
          "internalType": "uint256",
          "name": "productId",
          "type": "uint256"
        },
        {
          "indexed": false,
          "internalType": "enum SupplyChain.STAGE",
          "name": "stage",
          "type": "uint8"
        },
        {
          "indexed": true,
          "internalType": "address",
          "name": "actor",
          "type": "address"
        },
        {
          "indexed": false,
          "internalType": "uint256",
          "name": "timestamp",
          "type": "uint256"
        }
      ],
      "name": "StageUpdated",
      "type": "event"
    },
    {
      "anonymous": false,
      "inputs": [
        {
          "indexed": true,
          "internalType": "uint256",
          "name": "vendorId",
          "type": "uint256"
        },
        {
          "indexed": false,
          "internalType": "string",
          "name": "name",
          "type": "string"
        },
        {
          "indexed": false,
          "internalType": "uint256",
          "name": "timestamp",
          "type": "uint256"
        }
      ],
      "name": "VendorAdded",
      "type": "event"
    },
    {
      "inputs": [],
      "name": "Owner",
      "outputs": [
        {
          "internalType": "address",
          "name": "",
          "type": "address"
        }
      ],
      "stateMutability": "view",
      "type": "function"
    },
    {
      "inputs": [
        {
          "internalType": "address",
          "name": "_addr",
          "type": "address"
        },
        {
          "internalType": "string",
          "name": "_name",
          "type": "string"
        },
        {
          "internalType": "string",
          "name": "_location",
          "type": "string"
        }
      ],
      "name": "addDistributor",
      "outputs": [],
      "stateMutability": "nonpayable",
      "type": "function"
    },
    {
      "inputs": [
        {
          "internalType": "address",
          "name": "_addr",
          "type": "address"
        },
        {
          "internalType": "string",
          "name": "_name",
          "type": "string"
        },
        {
          "internalType": "string",
          "name": "_location",
          "type": "string"
        }
      ],
      "name": "addManufacturer",
      "outputs": [],
      "stateMutability": "nonpayable",
      "type": "function"
    },
    {
      "inputs": [
        {
          "internalType": "string",
          "name": "_name",
          "type": "string"
        },
        {
          "internalType": "string",
          "name": "_category",
          "type": "string"
        },
        {
          "internalType": "uint256",
          "name": "_quantity",
          "type": "uint256"
        },
        {
          "internalType": "string",
          "name": "_unit",
          "type": "string"
        },
        {
          "internalType": "uint256",
          "name": "_pricePerUnit",
          "type": "uint256"
        },
        {
          "internalType": "uint256",
          "name": "_vendorId",
          "type": "uint256"
        }
      ],
      "name": "addMaterial",
      "outputs": [],
      "stateMutability": "nonpayable",
      "type": "function"
    },
    {
      "inputs": [
        {
          "internalType": "address",
          "name": "_addr",
          "type": "address"
        },
        {
          "internalType": "string",
          "name": "_name",
          "type": "string"
        },
        {
          "internalType": "string",
          "name": "_location",
          "type": "string"
        }
      ],
      "name": "addRetailer",
      "outputs": [],
      "stateMutability": "nonpayable",
      "type": "function"
    },
    {
      "inputs": [
        {
          "internalType": "address",
          "name": "_addr",
          "type": "address"
        },
        {
          "internalType": "string",
          "name": "_name",
          "type": "string"
        },
        {
          "internalType": "string",
          "name": "_location",
          "type": "string"
        },
        {
          "internalType": "string",
          "name": "_contactInfo",
          "type": "string"
        },
        {
          "internalType": "string",
          "name": "_materialTypes",
          "type": "string"
        }
      ],
      "name": "addVendor",
      "outputs": [],
      "stateMutability": "nonpayable",
      "type": "function"
    },
    {
      "inputs": [
        {
          "internalType": "uint256",
          "name": "_productId",
          "type": "uint256"
        },
        {
          "internalType": "uint256",
          "name": "_materialId",
          "type": "uint256"
        },
        {
          "internalType": "uint256",
          "name": "_quantity",
          "type": "uint256"
        }
      ],
      "name": "assignMaterialToProduct",
      "outputs": [],
      "stateMutability": "nonpayable",
      "type": "function"
    },
    {
      "inputs": [
        {
          "internalType": "uint256",
          "name": "_productId",
          "type": "uint256"
        }
      ],
      "name": "confirmAndStartManufacturing",
      "outputs": [],
      "stateMutability": "nonpayable",
      "type": "function"
    },
    {
      "inputs": [
        {
          "internalType": "string",
          "name": "_name",
          "type": "string"
        },
        {
          "internalType": "string",
          "name": "_description",
          "type": "string"
        },
        {
          "internalType": "uint256",
          "name": "_targetQuantity",
          "type": "uint256"
        }
      ],
      "name": "createProduct",
      "outputs": [],
      "stateMutability": "nonpayable",
      "type": "function"
    },
    {
      "inputs": [],
      "name": "distributorCtr",
      "outputs": [
        {
          "internalType": "uint256",
          "name": "",
          "type": "uint256"
        }
      ],
      "stateMutability": "view",
      "type": "function"
    },
    {
      "inputs": [
        {
          "internalType": "uint256",
          "name": "",
          "type": "uint256"
        }
      ],
      "name": "distributors",
      "outputs": [
        {
          "internalType": "uint256",
          "name": "id",
          "type": "uint256"
        },
        {
          "internalType": "address",
          "name": "addr",
          "type": "address"
        },
        {
          "internalType": "string",
          "name": "name",
          "type": "string"
        },
        {
          "internalType": "string",
          "name": "location",
          "type": "string"
        },
        {
          "internalType": "uint256",
          "name": "registeredAt",
          "type": "uint256"
        }
      ],
      "stateMutability": "view",
      "type": "function"
    },
    {
      "inputs": [
        {
          "internalType": "address",
          "name": "_addr",
          "type": "address"
        }
      ],
      "name": "findDistributor",
      "outputs": [
        {
          "internalType": "uint256",
          "name": "",
          "type": "uint256"
        }
      ],
      "stateMutability": "view",
      "type": "function"
    },
    {
      "inputs": [
        {
          "internalType": "address",
          "name": "_addr",
          "type": "address"
        }
      ],
      "name": "findManufacturer",
      "outputs": [
        {
          "internalType": "uint256",
          "name": "",
          "type": "uint256"
        }
      ],
      "stateMutability": "view",
      "type": "function"
    },
    {
      "inputs": [
        {
          "internalType": "address",
          "name": "_addr",
          "type": "address"
        }
      ],
      "name": "findRetailer",
      "outputs": [
        {
          "internalType": "uint256",
          "name": "",
          "type": "uint256"
        }
      ],
      "stateMutability": "view",
      "type": "function"
    },
    {
      "inputs": [
        {
          "internalType": "address",
          "name": "_addr",
          "type": "address"
        }
      ],
      "name": "findVendor",
      "outputs": [
        {
          "internalType": "uint256",
          "name": "",
          "type": "uint256"
        }
      ],
      "stateMutability": "view",
      "type": "function"
    },
    {
      "inputs": [
        {
          "internalType": "uint256",
          "name": "_materialId",
          "type": "uint256"
        }
      ],
      "name": "getMaterial",
      "outputs": [
        {
          "components": [
            {
              "internalType": "uint256",
              "name": "id",
              "type": "uint256"
            },
            {
              "internalType": "string",
              "name": "name",
              "type": "string"
            },
            {
              "internalType": "string",
              "name": "category",
              "type": "string"
            },
            {
              "internalType": "uint256",
              "name": "totalQuantity",
              "type": "uint256"
            },
            {
              "internalType": "uint256",
              "name": "availableQuantity",
              "type": "uint256"
            },
            {
              "internalType": "string",
              "name": "unit",
              "type": "string"
            },
            {
              "internalType": "uint256",
              "name": "pricePerUnit",
              "type": "uint256"
            },
            {
              "internalType": "uint256",
              "name": "vendorId",
              "type": "uint256"
            },
            {
              "internalType": "uint256",
              "name": "receivedAt",
              "type": "uint256"
            },
            {
              "internalType": "bool",
              "name": "isActive",
              "type": "bool"
            }
          ],
          "internalType": "struct SupplyChain.Material",
          "name": "",
          "type": "tuple"
        }
      ],
      "stateMutability": "view",
      "type": "function"
    },
    {
      "inputs": [
        {
          "internalType": "uint256",
          "name": "_productId",
          "type": "uint256"
        }
      ],
      "name": "getProduct",
      "outputs": [
        {
          "components": [
            {
              "internalType": "uint256",
              "name": "id",
              "type": "uint256"
            },
            {
              "internalType": "string",
              "name": "name",
              "type": "string"
            },
            {
              "internalType": "string",
              "name": "description",
              "type": "string"
            },
            {
              "internalType": "uint256",
              "name": "targetQuantity",
              "type": "uint256"
            },
            {
              "internalType": "uint256",
              "name": "manufacturerId",
              "type": "uint256"
            },
            {
              "internalType": "uint256",
              "name": "distributorId",
              "type": "uint256"
            },
            {
              "internalType": "uint256",
              "name": "retailerId",
              "type": "uint256"
            },
            {
              "internalType": "enum SupplyChain.STAGE",
              "name": "stage",
              "type": "uint8"
            },
            {
              "internalType": "uint256",
              "name": "createdAt",
              "type": "uint256"
            }
          ],
          "internalType": "struct SupplyChain.Product",
          "name": "",
          "type": "tuple"
        }
      ],
      "stateMutability": "view",
      "type": "function"
    },
    {
      "inputs": [
        {
          "internalType": "uint256",
          "name": "_productId",
          "type": "uint256"
        }
      ],
      "name": "getProductMaterials",
      "outputs": [
        {
          "components": [
            {
              "internalType": "uint256",
              "name": "materialId",
              "type": "uint256"
            },
            {
              "internalType": "uint256",
              "name": "quantityUsed",
              "type": "uint256"
            },
            {
              "internalType": "uint256",
              "name": "assignedAt",
              "type": "uint256"
            }
          ],
          "internalType": "struct SupplyChain.ProductMaterialUsage[]",
          "name": "",
          "type": "tuple[]"
        }
      ],
      "stateMutability": "view",
      "type": "function"
    },
    {
      "inputs": [
        {
          "internalType": "uint256",
          "name": "_productId",
          "type": "uint256"
        }
      ],
      "name": "getProductMaterialsCount",
      "outputs": [
        {
          "internalType": "uint256",
          "name": "",
          "type": "uint256"
        }
      ],
      "stateMutability": "view",
      "type": "function"
    },
    {
      "inputs": [
        {
          "internalType": "uint256",
          "name": "_productId",
          "type": "uint256"
        }
      ],
      "name": "getProductTimeline",
      "outputs": [
        {
          "components": [
            {
              "internalType": "uint256",
              "name": "createdAt",
              "type": "uint256"
            },
            {
              "internalType": "uint256",
              "name": "materialsAssignedAt",
              "type": "uint256"
            },
            {
              "internalType": "uint256",
              "name": "manufacturingStartedAt",
              "type": "uint256"
            },
            {
              "internalType": "uint256",
              "name": "manufacturingCompletedAt",
              "type": "uint256"
            },
            {
              "internalType": "uint256",
              "name": "distributionStartedAt",
              "type": "uint256"
            },
            {
              "internalType": "uint256",
              "name": "retailReceivedAt",
              "type": "uint256"
            },
            {
              "internalType": "uint256",
              "name": "soldAt",
              "type": "uint256"
            }
          ],
          "internalType": "struct SupplyChain.ProductTimeline",
          "name": "",
          "type": "tuple"
        }
      ],
      "stateMutability": "view",
      "type": "function"
    },
    {
      "inputs": [
        {
          "internalType": "uint256",
          "name": "_vendorId",
          "type": "uint256"
        }
      ],
      "name": "getVendor",
      "outputs": [
        {
          "components": [
            {
              "internalType": "uint256",
              "name": "id",
              "type": "uint256"
            },
            {
              "internalType": "address",
              "name": "addr",
              "type": "address"
            },
            {
              "internalType": "string",
              "name": "name",
              "type": "string"
            },
            {
              "internalType": "string",
              "name": "location",
              "type": "string"
            },
            {
              "internalType": "string",
              "name": "contactInfo",
              "type": "string"
            },
            {
              "internalType": "string",
              "name": "materialTypes",
              "type": "string"
            },
            {
              "internalType": "uint256",
              "name": "registeredAt",
              "type": "uint256"
            },
            {
              "internalType": "bool",
              "name": "isActive",
              "type": "bool"
            }
          ],
          "internalType": "struct SupplyChain.Vendor",
          "name": "",
          "type": "tuple"
        }
      ],
      "stateMutability": "view",
      "type": "function"
    },
    {
      "inputs": [],
      "name": "isOwner",
      "outputs": [
        {
          "internalType": "bool",
          "name": "",
          "type": "bool"
        }
      ],
      "stateMutability": "view",
      "type": "function"
    },
    {
      "inputs": [],
      "name": "manufacturerCtr",
      "outputs": [
        {
          "internalType": "uint256",
          "name": "",
          "type": "uint256"
        }
      ],
      "stateMutability": "view",
      "type": "function"
    },
    {
      "inputs": [
        {
          "internalType": "uint256",
          "name": "_productId",
          "type": "uint256"
        },
        {
          "internalType": "uint256",
          "name": "_materialId",
          "type": "uint256"
        },
        {
          "internalType": "uint256",
          "name": "_quantity",
          "type": "uint256"
        }
      ],
      "name": "manufacturerSelectMaterial",
      "outputs": [],
      "stateMutability": "nonpayable",
      "type": "function"
    },
    {
      "inputs": [
        {
          "internalType": "uint256",
          "name": "",
          "type": "uint256"
        }
      ],
      "name": "manufacturers",
      "outputs": [
        {
          "internalType": "uint256",
          "name": "id",
          "type": "uint256"
        },
        {
          "internalType": "address",
          "name": "addr",
          "type": "address"
        },
        {
          "internalType": "string",
          "name": "name",
          "type": "string"
        },
        {
          "internalType": "string",
          "name": "location",
          "type": "string"
        },
        {
          "internalType": "uint256",
          "name": "registeredAt",
          "type": "uint256"
        }
      ],
      "stateMutability": "view",
      "type": "function"
    },
    {
      "inputs": [
        {
          "internalType": "uint256",
          "name": "_productId",
          "type": "uint256"
        }
      ],
      "name": "markAsSold",
      "outputs": [],
      "stateMutability": "nonpayable",
      "type": "function"
    },
    {
      "inputs": [],
      "name": "materialCtr",
      "outputs": [
        {
          "internalType": "uint256",
          "name": "",
          "type": "uint256"
        }
      ],
      "stateMutability": "view",
      "type": "function"
    },
    {
      "inputs": [
        {
          "internalType": "uint256",
          "name": "",
          "type": "uint256"
        }
      ],
      "name": "materials",
      "outputs": [
        {
          "internalType": "uint256",
          "name": "id",
          "type": "uint256"
        },
        {
          "internalType": "string",
          "name": "name",
          "type": "string"
        },
        {
          "internalType": "string",
          "name": "category",
          "type": "string"
        },
        {
          "internalType": "uint256",
          "name": "totalQuantity",
          "type": "uint256"
        },
        {
          "internalType": "uint256",
          "name": "availableQuantity",
          "type": "uint256"
        },
        {
          "internalType": "string",
          "name": "unit",
          "type": "string"
        },
        {
          "internalType": "uint256",
          "name": "pricePerUnit",
          "type": "uint256"
        },
        {
          "internalType": "uint256",
          "name": "vendorId",
          "type": "uint256"
        },
        {
          "internalType": "uint256",
          "name": "receivedAt",
          "type": "uint256"
        },
        {
          "internalType": "bool",
          "name": "isActive",
          "type": "bool"
        }
      ],
      "stateMutability": "view",
      "type": "function"
    },
    {
      "inputs": [],
      "name": "productCtr",
      "outputs": [
        {
          "internalType": "uint256",
          "name": "",
          "type": "uint256"
        }
      ],
      "stateMutability": "view",
      "type": "function"
    },
    {
      "inputs": [
        {
          "internalType": "uint256",
          "name": "",
          "type": "uint256"
        },
        {
          "internalType": "uint256",
          "name": "",
          "type": "uint256"
        }
      ],
      "name": "productMaterials",
      "outputs": [
        {
          "internalType": "uint256",
          "name": "materialId",
          "type": "uint256"
        },
        {
          "internalType": "uint256",
          "name": "quantityUsed",
          "type": "uint256"
        },
        {
          "internalType": "uint256",
          "name": "assignedAt",
          "type": "uint256"
        }
      ],
      "stateMutability": "view",
      "type": "function"
    },
    {
      "inputs": [
        {
          "internalType": "uint256",
          "name": "",
          "type": "uint256"
        }
      ],
      "name": "productTimelines",
      "outputs": [
        {
          "internalType": "uint256",
          "name": "createdAt",
          "type": "uint256"
        },
        {
          "internalType": "uint256",
          "name": "materialsAssignedAt",
          "type": "uint256"
        },
        {
          "internalType": "uint256",
          "name": "manufacturingStartedAt",
          "type": "uint256"
        },
        {
          "internalType": "uint256",
          "name": "manufacturingCompletedAt",
          "type": "uint256"
        },
        {
          "internalType": "uint256",
          "name": "distributionStartedAt",
          "type": "uint256"
        },
        {
          "internalType": "uint256",
          "name": "retailReceivedAt",
          "type": "uint256"
        },
        {
          "internalType": "uint256",
          "name": "soldAt",
          "type": "uint256"
        }
      ],
      "stateMutability": "view",
      "type": "function"
    },
    {
      "inputs": [
        {
          "internalType": "uint256",
          "name": "",
          "type": "uint256"
        }
      ],
      "name": "products",
      "outputs": [
        {
          "internalType": "uint256",
          "name": "id",
          "type": "uint256"
        },
        {
          "internalType": "string",
          "name": "name",
          "type": "string"
        },
        {
          "internalType": "string",
          "name": "description",
          "type": "string"
        },
        {
          "internalType": "uint256",
          "name": "targetQuantity",
          "type": "uint256"
        },
        {
          "internalType": "uint256",
          "name": "manufacturerId",
          "type": "uint256"
        },
        {
          "internalType": "uint256",
          "name": "distributorId",
          "type": "uint256"
        },
        {
          "internalType": "uint256",
          "name": "retailerId",
          "type": "uint256"
        },
        {
          "internalType": "enum SupplyChain.STAGE",
          "name": "stage",
          "type": "uint8"
        },
        {
          "internalType": "uint256",
          "name": "createdAt",
          "type": "uint256"
        }
      ],
      "stateMutability": "view",
      "type": "function"
    },
    {
      "inputs": [
        {
          "internalType": "uint256",
          "name": "_productId",
          "type": "uint256"
        }
      ],
      "name": "receiveAtRetail",
      "outputs": [],
      "stateMutability": "nonpayable",
      "type": "function"
    },
    {
      "inputs": [
        {
          "internalType": "uint256",
          "name": "_materialId",
          "type": "uint256"
        },
        {
          "internalType": "uint256",
          "name": "_quantity",
          "type": "uint256"
        },
        {
          "internalType": "uint256",
          "name": "_vendorId",
          "type": "uint256"
        },
        {
          "internalType": "uint256",
          "name": "_pricePerUnit",
          "type": "uint256"
        }
      ],
      "name": "restockMaterial",
      "outputs": [],
      "stateMutability": "nonpayable",
      "type": "function"
    },
    {
      "inputs": [],
      "name": "retailerCtr",
      "outputs": [
        {
          "internalType": "uint256",
          "name": "",
          "type": "uint256"
        }
      ],
      "stateMutability": "view",
      "type": "function"
    },
    {
      "inputs": [
        {
          "internalType": "uint256",
          "name": "",
          "type": "uint256"
        }
      ],
      "name": "retailers",
      "outputs": [
        {
          "internalType": "uint256",
          "name": "id",
          "type": "uint256"
        },
        {
          "internalType": "address",
          "name": "addr",
          "type": "address"
        },
        {
          "internalType": "string",
          "name": "name",
          "type": "string"
        },
        {
          "internalType": "string",
          "name": "location",
          "type": "string"
        },
        {
          "internalType": "uint256",
          "name": "registeredAt",
          "type": "uint256"
        }
      ],
      "stateMutability": "view",
      "type": "function"
    },
    {
      "inputs": [
        {
          "internalType": "uint256",
          "name": "_productId",
          "type": "uint256"
        }
      ],
      "name": "showStage",
      "outputs": [
        {
          "internalType": "string",
          "name": "",
          "type": "string"
        }
      ],
      "stateMutability": "view",
      "type": "function"
    },
    {
      "inputs": [
        {
          "internalType": "uint256",
          "name": "_productId",
          "type": "uint256"
        }
      ],
      "name": "startDistribution",
      "outputs": [],
      "stateMutability": "nonpayable",
      "type": "function"
    },
    {
      "inputs": [
        {
          "internalType": "uint256",
          "name": "_productId",
          "type": "uint256"
        }
      ],
      "name": "startManufacturing",
      "outputs": [],
      "stateMutability": "nonpayable",
      "type": "function"
    },
    {
      "inputs": [
        {
          "internalType": "uint256",
          "name": "",
          "type": "uint256"
        }
      ],
      "name": "supplyHistory",
      "outputs": [
        {
          "internalType": "uint256",
          "name": "id",
          "type": "uint256"
        },
        {
          "internalType": "uint256",
          "name": "materialId",
          "type": "uint256"
        },
        {
          "internalType": "uint256",
          "name": "vendorId",
          "type": "uint256"
        },
        {
          "internalType": "uint256",
          "name": "quantity",
          "type": "uint256"
        },
        {
          "internalType": "uint256",
          "name": "pricePerUnit",
          "type": "uint256"
        },
        {
          "internalType": "uint256",
          "name": "totalAmount",
          "type": "uint256"
        },
        {
          "internalType": "uint256",
          "name": "suppliedAt",
          "type": "uint256"
        }
      ],
      "stateMutability": "view",
      "type": "function"
    },
    {
      "inputs": [],
      "name": "supplyHistoryCtr",
      "outputs": [
        {
          "internalType": "uint256",
          "name": "",
          "type": "uint256"
        }
      ],
      "stateMutability": "view",
      "type": "function"
    },
    {
      "inputs": [
        {
          "internalType": "string",
          "name": "_name",
          "type": "string"
        },
        {
          "internalType": "string",
          "name": "_category",
          "type": "string"
        },
        {
          "internalType": "uint256",
          "name": "_quantity",
          "type": "uint256"
        },
        {
          "internalType": "string",
          "name": "_unit",
          "type": "string"
        },
        {
          "internalType": "uint256",
          "name": "_pricePerUnit",
          "type": "uint256"
        }
      ],
      "name": "vendorAddMaterial",
      "outputs": [],
      "stateMutability": "nonpayable",
      "type": "function"
    },
    {
      "inputs": [],
      "name": "vendorCtr",
      "outputs": [
        {
          "internalType": "uint256",
          "name": "",
          "type": "uint256"
        }
      ],
      "stateMutability": "view",
      "type": "function"
    },
    {
      "inputs": [
        {
          "internalType": "uint256",
          "name": "_materialId",
          "type": "uint256"
        },
        {
          "internalType": "uint256",
          "name": "_quantity",
          "type": "uint256"
        },
        {
          "internalType": "uint256",
          "name": "_pricePerUnit",
          "type": "uint256"
        }
      ],
      "name": "vendorRestockMaterial",
      "outputs": [],
      "stateMutability": "nonpayable",
      "type": "function"
    },
    {
      "inputs": [
        {
          "internalType": "uint256",
          "name": "",
          "type": "uint256"
        }
      ],
      "name": "vendors",
      "outputs": [
        {
          "internalType": "uint256",
          "name": "id",
          "type": "uint256"
        },
        {
          "internalType": "address",
          "name": "addr",
          "type": "address"
        },
        {
          "internalType": "string",
          "name": "name",
          "type": "string"
        },
        {
          "internalType": "string",
          "name": "location",
          "type": "string"
        },
        {
          "internalType": "string",
          "name": "contactInfo",
          "type": "string"
        },
        {
          "internalType": "string",
          "name": "materialTypes",
          "type": "string"
        },
        {
          "internalType": "uint256",
          "name": "registeredAt",
          "type": "uint256"
        },
        {
          "internalType": "bool",
          "name": "isActive",
          "type": "bool"
        }
      ],
      "stateMutability": "view",
      "type": "function"
    }
  ],
  "bytecode": "0x60806040526000600155600060025560006003556000600455600060055560006006556000600f5534801561003357600080fd5b50600080546001600160a01b031916331790556145ce806100556000396000f3fe608060405234801561001057600080fd5b506004361061027f5760003560e01c8063857ddb041161015c578063b4a99a4e116100ce578063d8f2d34d11610087578063d8f2d34d14610692578063da6d8909146106fb578063e0588c291461071b578063e101a2e01461072e578063e62bdeac1461074e578063e79796891461076157600080fd5b8063b4a99a4e146105ea578063b79a104c14610615578063b9db15b414610628578063c4330b1714610648578063ca5ce2681461065b578063d4eb879b1461068957600080fd5b806390175af11161012057806390175af114610536578063a08d986d14610549578063a142220914610570578063a5db24ac14610583578063aaea34aa14610596578063ab90ac1f1461059f57600080fd5b8063857ddb0414610452578063860b8cff14610465578063897ec7df146104e55780638eb086d3146104f85780638f32d59b1461051857600080fd5b80634f469fcf116101f557806367cec4fe116101b957806367cec4fe146103bf5780636983af9a146103d25780636a992c9f146103e55780637120affc146103f85780637a8e8526146104015780637acc0b201461042a57600080fd5b80634f469fcf1461034c57806350b492ba1461035f5780635f81203b146103835780636180ba811461039657806365de1eb31461039f57600080fd5b80632931a108116102475780632931a108146102ee5780632a4af440146103015780633238b16b14610314578063359fe3871461031d57806347c09cf4146103305780634c3cfa301461033957600080fd5b806319677a97146102845780632440e96b1461029957806324e54bd4146102ac57806326838fc8146102d2578063283cbaf2146102e5575b600080fd5b610297610292366004613810565b610774565b005b6102976102a736600461383c565b610a13565b6102bf6102ba36600461388a565b610bf1565b6040519081526020015b60405180910390f35b6102976102e03660046138ac565b610c44565b6102bf60025481565b6102976102fc3660046138ac565b610e20565b61029761030f366004613968565b610f5a565b6102bf60065481565b6102bf61032b3660046138ac565b611065565b6102bf60045481565b610297610347366004613810565b6110a7565b61029761035a3660046139dc565b6112f0565b61037261036d3660046138ac565b611466565b6040516102c9959493929190613ae0565b610297610391366004613b2f565b6115af565b6102bf60015481565b6103b26103ad3660046138ac565b61188a565b6040516102c99190613bd3565b6102bf6103cd36600461388a565b611bae565b6102976103e03660046138ac565b611bf8565b6102976103f3366004613968565b611d7a565b6102bf600f5481565b61041461040f3660046138ac565b611e85565b6040516102c99a99989796959493929190613c99565b61043d6104383660046138ac565b61206e565b6040516102c999989796959493929190613d4d565b610297610460366004613968565b6121cb565b6104b06104733660046138ac565b6010602052600090815260409020805460018201546002830154600384015460048501546005860154600690960154949593949293919290919087565b604080519788526020880196909652948601939093526060850191909152608084015260a083015260c082015260e0016102c9565b6103726104f33660046138ac565b6122d6565b61050b6105063660046138ac565b612308565b6040516102c99190613db8565b6000546001600160a01b0316331460405190151581526020016102c9565b6103726105443660046138ac565b6123bc565b61055c6105573660046138ac565b6123ee565b6040516102c9989796959493929190613e11565b61029761057e366004613e95565b61265d565b610297610591366004613810565b612838565b6102bf60035481565b6104b06105ad3660046138ac565b600d602052600090815260409020805460018201546002830154600384015460048501546005860154600690960154949593949293919290919087565b6000546105fd906001600160a01b031681565b6040516001600160a01b0390911681526020016102c9565b6102976106233660046138ac565b612b41565b61063b6106363660046138ac565b612cc0565b6040516102c99190613f02565b6102bf61065636600461388a565b612eaf565b61066e610669366004613f98565b612ef9565b604080519384526020840192909252908201526060016102c9565b6102bf60055481565b6106a56106a03660046138ac565b612f3b565b6040516102c99190600060e082019050825182526020830151602083015260408301516040830152606083015160608301526080830151608083015260a083015160a083015260c083015160c083015292915050565b61070e6107093660046138ac565b61300c565b6040516102c99190613fba565b610297610729366004614070565b6132b9565b61074161073c3660046138ac565b6133a2565b6040516102c9919061410a565b6102bf61075c36600461388a565b6135a4565b61029761076f3660046138ac565b6135ee565b6000546001600160a01b031633146107a75760405162461bcd60e51b815260040161079e9061411d565b60405180910390fd5b6000831180156107b957506003548311155b6107d55760405162461bcd60e51b815260040161079e9061415f565b6000821180156107e757506002548211155b6108035760405162461bcd60e51b815260040161079e9061418b565b60008381526009602052604081206007015460ff16600581111561082957610829613d15565b148061085a5750600160008481526009602052604090206007015460ff16600581111561085857610858613d15565b145b6108765760405162461bcd60e51b815260040161079e906141b8565b6000828152600860205260409020600401548111156108d75760405162461bcd60e51b815260206004820152601e60248201527f496e73756666696369656e74206d6174657269616c207175616e746974790000604482015260640161079e565b600081116108f75760405162461bcd60e51b815260040161079e906141fd565b60008281526008602052604081206004018054839290610918908490614241565b90915550506000838152600e602090815260408083208151606081018352868152808401868152429382019384528254600181810185559387529486209151600390950290910193845551908301555160029091015560008481526009602052604090206007015460ff16600581111561099457610994613d15565b036109c8576000838152600960209081526040808320600701805460ff19166001908117909155600d909252909120429101555b6040805183815260208101839052429181019190915283907f18aa2e204882850ba695336aa40ce1ec1632e00ec3157e2a0daee55d646bb0bc906060015b60405180910390a2505050565b6000546001600160a01b03163314610a3d5760405162461bcd60e51b815260040161079e9061411d565b600084118015610a4f57506002548411155b610a6b5760405162461bcd60e51b815260040161079e9061418b565b600082118015610a7d57506001548211155b610a995760405162461bcd60e51b815260040161079e9061425a565b60008311610ab95760405162461bcd60e51b815260040161079e906141fd565b60008481526008602052604081206003018054859290610ada908490614285565b909155505060008481526008602052604081206004018054859290610b00908490614285565b9091555050600f8054906000610b1583614298565b91905055506040518060e00160405280600f5481526020018581526020018381526020018481526020018281526020018285610b5191906142b1565b8152426020918201819052600f546000908152601083526040908190208451815584840151600182015584820151600282015560608086015160038301556080860151600483015560a0860151600583015560c090950151600690910155805187815292830186905282015285917fbe32e156b54e9098be363f42e6f67b57df311e25679388c3af0cec4b53c80c5d91015b60405180910390a250505050565b600060015b6004548111610c3b576000818152600a60205260409020600101546001600160a01b03808516911603610c295792915050565b80610c3381614298565b915050610bf6565b50600092915050565b6000610c4f33610bf1565b6000549091506001600160a01b0316331481151580610c6b5750805b610c875760405162461bcd60e51b815260040161079e906142c8565b600083118015610c9957506003548311155b610cb55760405162461bcd60e51b815260040161079e9061415f565b600160008481526009602052604090206007015460ff166005811115610cdd57610cdd613d15565b14610d2a5760405162461bcd60e51b815260206004820152601a60248201527f4d6174657269616c73206e6f74207965742061737369676e6564000000000000604482015260640161079e565b6000838152600e6020526040902054610d7d5760405162461bcd60e51b8152602060048201526015602482015274139bc81b585d195c9a585b1cc8185cdcda59db9959605a1b604482015260640161079e565b600083815260096020526040902060040154158015610d9c5750600082115b15610db65760008381526009602052604090206004018290555b600083815260096020526040902060070180546002919060ff19166001835b02179055506000838152600d60205260409081902042600291820181905591513392869260008051602061454d83398151915292610e13929061430d565b60405180910390a3505050565b600081118015610e3257506003548111155b610e4e5760405162461bcd60e51b815260040161079e9061415f565b6000610e5933611bae565b6000549091506001600160a01b0316331481151580610e755750805b610e915760405162461bcd60e51b815260040161079e90614328565b600460008481526009602052604090206007015460ff166005811115610eb957610eb9613d15565b14610f065760405162461bcd60e51b815260206004820152601b60248201527f50726f64756374206e6f742061742072657461696c2073746167650000000000604482015260640161079e565b6000838152600960209081526040808320600701805460ff19166005908117909155600d9092529182902042600690910181905591513392869260008051602061454d83398151915292610e13929061430d565b6000546001600160a01b03163314610f845760405162461bcd60e51b815260040161079e9061411d565b60058054906000610f9483614298565b90915550506040805160a0810182526005548082526001600160a01b038681166020808501918252848601888152606086018890524260808701526000948552600b909152949092208351815591516001830180546001600160a01b031916919092161790559151909190600282019061100e90826143f2565b506060820151600382019061102390826143f2565b50608082015181600401559050506005547f994059cd9dae665d5513a9e2bf83f603b4e545c49bc2ed781399687853509c6a8342604051610a069291906144b2565b6000808211801561107857506003548211155b6110945760405162461bcd60e51b815260040161079e9061415f565b506000908152600e602052604090205490565b60006110b2336135a4565b9050600081116111045760405162461bcd60e51b815260206004820152601f60248201527f596f7520617265206e6f74206120726567697374657265642076656e646f7200604482015260640161079e565b60008411801561111657506002548411155b6111325760405162461bcd60e51b815260040161079e9061418b565b60008481526008602052604090206007015481146111a25760405162461bcd60e51b815260206004820152602760248201527f54686973206d6174657269616c2062656c6f6e677320746f20616e6f74686572604482015266103b32b73237b960c91b606482015260840161079e565b600083116111c25760405162461bcd60e51b815260040161079e906141fd565b600084815260086020526040812060030180548592906111e3908490614285565b909155505060008481526008602052604081206004018054859290611209908490614285565b9091555050600f805490600061121e83614298565b91905055506040518060e00160405280600f548152602001858152602001828152602001848152602001838152602001838561125a91906142b1565b8152426020918201819052600f546000908152601083526040908190208451815584840151600182015584820151600282015560608086015160038301556080860151600483015560a0860151600583015560c090950151600690910155805187815292830185905282015285917fbe32e156b54e9098be363f42e6f67b57df311e25679388c3af0cec4b53c80c5d9101610be3565b6000546001600160a01b0316331461131a5760405162461bcd60e51b815260040161079e9061411d565b6001805490600061132a83614298565b90915550506040805161010081018252600180548083526001600160a01b0389811660208086019182528587018b8152606087018b9052608087018a905260a087018990524260c088015260e08701869052600094855260079091529590922084518155915192820180546001600160a01b0319169390911692909217909155915190919060028201906113be90826143f2565b50606082015160038201906113d390826143f2565b50608082015160048201906113e890826143f2565b5060a082015160058201906113fd90826143f2565b5060c0820151600682015560e0909101516007909101805460ff19169115159190911790556001546040517f47074c31575c456c951ba61716a1c2c0a61389c787312a0068d188d5da691a5b9061145790879042906144b2565b60405180910390a25050505050565b600b6020526000908152604090208054600182015460028301805492936001600160a01b039092169261149890614369565b80601f01602080910402602001604051908101604052809291908181526020018280546114c490614369565b80156115115780601f106114e657610100808354040283529160200191611511565b820191906000526020600020905b8154815290600101906020018083116114f457829003601f168201915b50505050509080600301805461152690614369565b80601f016020809104026020016040519081016040528092919081815260200182805461155290614369565b801561159f5780601f106115745761010080835404028352916020019161159f565b820191906000526020600020905b81548152906001019060200180831161158257829003601f168201915b5050505050908060040154905085565b6000546001600160a01b031633146115d95760405162461bcd60e51b815260040161079e9061411d565b6000811180156115eb57506001548111155b6116075760405162461bcd60e51b815260040161079e9061425a565b600084116116275760405162461bcd60e51b815260040161079e906141fd565b6000818152600760208190526040909120015460ff166116805760405162461bcd60e51b815260206004820152601460248201527356656e646f72206973206e6f742061637469766560601b604482015260640161079e565b6002805490600061169083614298565b919050555060405180610140016040528060025481526020018781526020018681526020018581526020018581526020018481526020018381526020018281526020014281526020016001151581525060086000600254815260200190815260200160002060008201518160000155602082015181600101908161171491906143f2565b506040820151600282019061172990826143f2565b50606082015160038201556080820151600482015560a0820151600582019061175290826143f2565b5060c0820151600682015560e082015160078201556101008201516008820155610120909101516009909101805460ff1916911515919091179055600f805490600061179d83614298565b91905055506040518060e00160405280600f548152602001600254815260200182815260200185815260200183815260200183866117db91906142b1565b81526020014281525060106000600f548152602001908152602001600020600082015181600001556020820151816001015560408201518160020155606082015181600301556080820151816004015560a0820151816005015560c082015181600601559050506002547f51a2e274def2e0185f6d0d335600922856ad91a3f20794fd62a732bea3191dd88783874260405161187a94939291906144d4565b60405180910390a2505050505050565b6118dd6040518061010001604052806000815260200160006001600160a01b0316815260200160608152602001606081526020016060815260200160608152602001600081526020016000151581525090565b6000821180156118ef57506001548211155b61190b5760405162461bcd60e51b815260040161079e9061425a565b6000828152600760209081526040918290208251610100810184528154815260018201546001600160a01b031692810192909252600281018054929391929184019161195690614369565b80601f016020809104026020016040519081016040528092919081815260200182805461198290614369565b80156119cf5780601f106119a4576101008083540402835291602001916119cf565b820191906000526020600020905b8154815290600101906020018083116119b257829003601f168201915b505050505081526020016003820180546119e890614369565b80601f0160208091040260200160405190810160405280929190818152602001828054611a1490614369565b8015611a615780601f10611a3657610100808354040283529160200191611a61565b820191906000526020600020905b815481529060010190602001808311611a4457829003601f168201915b50505050508152602001600482018054611a7a90614369565b80601f0160208091040260200160405190810160405280929190818152602001828054611aa690614369565b8015611af35780601f10611ac857610100808354040283529160200191611af3565b820191906000526020600020905b815481529060010190602001808311611ad657829003601f168201915b50505050508152602001600582018054611b0c90614369565b80601f0160208091040260200160405190810160405280929190818152602001828054611b3890614369565b8015611b855780601f10611b5a57610100808354040283529160200191611b85565b820191906000526020600020905b815481529060010190602001808311611b6857829003601f168201915b50505091835250506006820154602082015260079091015460ff16151560409091015292915050565b600060015b6006548111610c3b576000818152600c60205260409020600101546001600160a01b03808516911603611be65792915050565b80611bf081614298565b915050611bb3565b600081118015611c0a57506003548111155b611c265760405162461bcd60e51b815260040161079e9061415f565b6000611c3133611bae565b6000549091506001600160a01b0316331481151580611c4d5750805b611c695760405162461bcd60e51b815260040161079e90614328565b600360008481526009602052604090206007015460ff166005811115611c9157611c91613d15565b14611ce85760405162461bcd60e51b815260206004820152602160248201527f50726f64756374206e6f7420696e20646973747269627574696f6e20737461676044820152606560f81b606482015260840161079e565b8115611d07576000838152600960205260409020600601829055611d26565b60065415611d2657600083815260096020526040902060016006909101555b6000838152600960209081526040808320600701805460ff19166004908117909155600d9092529182902042600590910181905591513392869260008051602061454d83398151915292610e13929061430d565b6000546001600160a01b03163314611da45760405162461bcd60e51b815260040161079e9061411d565b60048054906000611db483614298565b90915550506040805160a0810182526004548082526001600160a01b038681166020808501918252848601888152606086018890524260808701526000948552600a909152949092208351815591516001830180546001600160a01b0319169190921617905591519091906002820190611e2e90826143f2565b5060608201516003820190611e4390826143f2565b50608082015181600401559050506004547fda55a2eb048c2e334b688a996f9498432da1cbd8e2763280b869079e79e81b238342604051610a069291906144b2565b60086020526000908152604090208054600182018054919291611ea790614369565b80601f0160208091040260200160405190810160405280929190818152602001828054611ed390614369565b8015611f205780601f10611ef557610100808354040283529160200191611f20565b820191906000526020600020905b815481529060010190602001808311611f0357829003601f168201915b505050505090806002018054611f3590614369565b80601f0160208091040260200160405190810160405280929190818152602001828054611f6190614369565b8015611fae5780601f10611f8357610100808354040283529160200191611fae565b820191906000526020600020905b815481529060010190602001808311611f9157829003601f168201915b505050505090806003015490806004015490806005018054611fcf90614369565b80601f0160208091040260200160405190810160405280929190818152602001828054611ffb90614369565b80156120485780601f1061201d57610100808354040283529160200191612048565b820191906000526020600020905b81548152906001019060200180831161202b57829003601f168201915b505050506006830154600784015460088501546009909501549394919390925060ff168a565b6009602052600090815260409020805460018201805491929161209090614369565b80601f01602080910402602001604051908101604052809291908181526020018280546120bc90614369565b80156121095780601f106120de57610100808354040283529160200191612109565b820191906000526020600020905b8154815290600101906020018083116120ec57829003601f168201915b50505050509080600201805461211e90614369565b80601f016020809104026020016040519081016040528092919081815260200182805461214a90614369565b80156121975780601f1061216c57610100808354040283529160200191612197565b820191906000526020600020905b81548152906001019060200180831161217a57829003601f168201915b50505060038401546004850154600586015460068701546007880154600890980154969793969295509093509160ff169089565b6000546001600160a01b031633146121f55760405162461bcd60e51b815260040161079e9061411d565b6006805490600061220583614298565b90915550506040805160a0810182526006548082526001600160a01b038681166020808501918252848601888152606086018890524260808701526000948552600c909152949092208351815591516001830180546001600160a01b031916919092161790559151909190600282019061227f90826143f2565b506060820151600382019061229490826143f2565b50608082015181600401559050506006547fc62774cc52e8b1ea516fa16d7807baef652dfe4706ff9d1b6e23d6f2e0959b9d8342604051610a069291906144b2565b600c6020526000908152604090208054600182015460028301805492936001600160a01b039092169261149890614369565b606060008211801561231c57506003548211155b6123385760405162461bcd60e51b815260040161079e9061415f565b6000828152600e6020908152604080832080548251818502810185019093528083529193909284015b828210156123b15783829060005260206000209060030201604051806060016040529081600082015481526020016001820154815260200160028201548152505081526020019060010190612361565b505050509050919050565b600a6020526000908152604090208054600182015460028301805492936001600160a01b039092169261149890614369565b60076020526000908152604090208054600182015460028301805492936001600160a01b039092169261242090614369565b80601f016020809104026020016040519081016040528092919081815260200182805461244c90614369565b80156124995780601f1061246e57610100808354040283529160200191612499565b820191906000526020600020905b81548152906001019060200180831161247c57829003601f168201915b5050505050908060030180546124ae90614369565b80601f01602080910402602001604051908101604052809291908181526020018280546124da90614369565b80156125275780601f106124fc57610100808354040283529160200191612527565b820191906000526020600020905b81548152906001019060200180831161250a57829003601f168201915b50505050509080600401805461253c90614369565b80601f016020809104026020016040519081016040528092919081815260200182805461256890614369565b80156125b55780601f1061258a576101008083540402835291602001916125b5565b820191906000526020600020905b81548152906001019060200180831161259857829003601f168201915b5050505050908060050180546125ca90614369565b80601f01602080910402602001604051908101604052809291908181526020018280546125f690614369565b80156126435780601f1061261857610100808354040283529160200191612643565b820191906000526020600020905b81548152906001019060200180831161262657829003601f168201915b50505050600683015460079093015491929160ff16905088565b6000546001600160a01b031633146126875760405162461bcd60e51b815260040161079e9061411d565b600081116126d75760405162461bcd60e51b815260206004820152601b60248201527f546172676574207175616e74697479206d757374206265203e20300000000000604482015260640161079e565b600380549060006126e783614298565b919050555060405180610120016040528060035481526020018481526020018381526020018281526020016000815260200160008152602001600081526020016000600581111561273a5761273a613d15565b815242602091820152600354600090815260098252604090208251815590820151600182019061276a90826143f2565b506040820151600282019061277f90826143f2565b50606082015181600301556080820151816004015560a0820151816005015560c0820151816006015560e08201518160070160006101000a81548160ff021916908360058111156127d2576127d2613d15565b0217905550610100820151816008015590505042600d60006003548152602001908152602001600020600001819055506003547f8d3d82130aebba03bb48b5d158bc2bbb4647856765b1089e7250507307965af9848342604051610a0693929190614503565b600061284333610bf1565b6000549091506001600160a01b031633148115158061285f5750805b61287b5760405162461bcd60e51b815260040161079e906142c8565b60008511801561288d57506003548511155b6128a95760405162461bcd60e51b815260040161079e9061415f565b6000841180156128bb57506002548411155b6128d75760405162461bcd60e51b815260040161079e9061418b565b60008581526009602052604081206007015460ff1660058111156128fd576128fd613d15565b148061292e5750600160008681526009602052604090206007015460ff16600581111561292c5761292c613d15565b145b61294a5760405162461bcd60e51b815260040161079e906141b8565b6000848152600860205260409020600401548311156129ab5760405162461bcd60e51b815260206004820152601e60248201527f496e73756666696369656e74206d6174657269616c207175616e746974790000604482015260640161079e565b600083116129cb5760405162461bcd60e51b815260040161079e906141fd565b8080156129d6575081155b156129f5576000600454116129ec5760006129ef565b60015b60ff1691505b600085815260096020526040902060040154158015612a145750600082115b15612a2e5760008581526009602052604090206004018290555b60008481526008602052604081206004018054859290612a4f908490614241565b90915550506000858152600e602090815260408083208151606081018352888152808401888152429382019384528254600181810185559387529486209151600390950290910193845551908301555160029091015560008681526009602052604090206007015460ff166005811115612acb57612acb613d15565b03612aff576000858152600960209081526040808320600701805460ff19166001908117909155600d909252909120429101555b6040805185815260208101859052429181019190915285907f18aa2e204882850ba695336aa40ce1ec1632e00ec3157e2a0daee55d646bb0bc90606001611457565b600081118015612b5357506003548111155b612b6f5760405162461bcd60e51b815260040161079e9061415f565b6000612b7a33610bf1565b6000549091506001600160a01b0316331481151580612b965750805b612bb25760405162461bcd60e51b815260040161079e906142c8565b600160008481526009602052604090206007015460ff166005811115612bda57612bda613d15565b14612c275760405162461bcd60e51b815260206004820152601a60248201527f4d6174657269616c73206e6f74207965742061737369676e6564000000000000604482015260640161079e565b6000838152600e6020526040902054612c905760405162461bcd60e51b815260206004820152602560248201527f4e6f206d6174657269616c732061737369676e656420746f20746869732070726044820152641bd91d58dd60da1b606482015260840161079e565b8115610db65760008381526009602052604090206004810183905560070180546002919060ff1916600183610dd5565b612cc86137b3565b600082118015612cda57506003548211155b612cf65760405162461bcd60e51b815260040161079e9061415f565b600960008381526020019081526020016000206040518061012001604052908160008201548152602001600182018054612d2f90614369565b80601f0160208091040260200160405190810160405280929190818152602001828054612d5b90614369565b8015612da85780601f10612d7d57610100808354040283529160200191612da8565b820191906000526020600020905b815481529060010190602001808311612d8b57829003601f168201915b50505050508152602001600282018054612dc190614369565b80601f0160208091040260200160405190810160405280929190818152602001828054612ded90614369565b8015612e3a5780601f10612e0f57610100808354040283529160200191612e3a565b820191906000526020600020905b815481529060010190602001808311612e1d57829003601f168201915b50505091835250506003820154602082015260048201546040820152600580830154606083015260068301546080830152600783015460a09092019160ff1690811115612e8957612e89613d15565b6005811115612e9a57612e9a613d15565b81526020016008820154815250509050919050565b600060015b6005548111610c3b576000818152600b60205260409020600101546001600160a01b03808516911603612ee75792915050565b80612ef181614298565b915050612eb4565b600e6020528160005260406000208181548110612f1557600080fd5b600091825260209091206003909102018054600182015460029092015490935090915083565b612f7b6040518060e00160405280600081526020016000815260200160008152602001600081526020016000815260200160008152602001600081525090565b600082118015612f8d57506003548211155b612fa95760405162461bcd60e51b815260040161079e9061415f565b506000908152600d6020908152604091829020825160e081018452815481526001820154928101929092526002810154928201929092526003820154606082015260048201546080820152600582015460a082015260069091015460c082015290565b6130646040518061014001604052806000815260200160608152602001606081526020016000815260200160008152602001606081526020016000815260200160008152602001600081526020016000151581525090565b60008211801561307657506002548211155b6130925760405162461bcd60e51b815260040161079e9061418b565b6008600083815260200190815260200160002060405180610140016040529081600082015481526020016001820180546130cb90614369565b80601f01602080910402602001604051908101604052809291908181526020018280546130f790614369565b80156131445780601f1061311957610100808354040283529160200191613144565b820191906000526020600020905b81548152906001019060200180831161312757829003601f168201915b5050505050815260200160028201805461315d90614369565b80601f016020809104026020016040519081016040528092919081815260200182805461318990614369565b80156131d65780601f106131ab576101008083540402835291602001916131d6565b820191906000526020600020905b8154815290600101906020018083116131b957829003601f168201915b50505050508152602001600382015481526020016004820154815260200160058201805461320390614369565b80601f016020809104026020016040519081016040528092919081815260200182805461322f90614369565b801561327c5780601f106132515761010080835404028352916020019161327c565b820191906000526020600020905b81548152906001019060200180831161325f57829003601f168201915b505050918352505060068201546020820152600782015460408201526008820154606082015260099091015460ff16151560809091015292915050565b60006132c4336135a4565b9050600081116133165760405162461bcd60e51b815260206004820152601f60248201527f596f7520617265206e6f74206120726567697374657265642076656e646f7200604482015260640161079e565b6000818152600760208190526040909120015460ff166133825760405162461bcd60e51b815260206004820152602160248201527f596f75722076656e646f72206163636f756e74206973206e6f742061637469766044820152606560f81b606482015260840161079e565b600084116116805760405162461bcd60e51b815260040161079e906141fd565b60606000821180156133b657506003548211155b6133d25760405162461bcd60e51b815260040161079e9061415f565b60008281526009602052604081206007015460ff16908160058111156133fa576133fa613d15565b0361341f57604051806060016040528060248152602001614529602491399392505050565b600181600581111561343357613433613d15565b03613458576040518060600160405280602c815260200161456d602c91399392505050565b600281600581111561346c5761346c613d15565b036134ac57505060408051808201909152601981527f4d616e75666163747572696e6720696e2050726f6772657373000000000000006020820152919050565b60038160058111156134c0576134c0613d15565b036134f257505060408051808201909152600f81526e24b7102234b9ba3934b13aba34b7b760891b6020820152919050565b600481600581111561350657613506613d15565b0361353857505060408051808201909152600f81526e41742052657461696c2053746f726560881b6020820152919050565b600581600581111561354c5761354c613d15565b0361357f57505060408051808201909152601081526f29b7b632103a379021b7b739bab6b2b960811b6020820152919050565b50506040805180820190915260078152662ab735b737bbb760c91b6020820152919050565b600060015b6001548111610c3b576000818152600760205260409020600101546001600160a01b038085169116036135dc5792915050565b806135e681614298565b9150506135a9565b60008111801561360057506003548111155b61361c5760405162461bcd60e51b815260040161079e9061415f565b600061362733612eaf565b6000549091506001600160a01b03163314811515806136435750805b61369b5760405162461bcd60e51b8152602060048201526024808201527f596f7520617265206e6f742061207265676973746572656420646973747269626044820152633aba37b960e11b606482015260840161079e565b600260008481526009602052604090206007015460ff1660058111156136c3576136c3613d15565b1461371b5760405162461bcd60e51b815260206004820152602260248201527f50726f64756374206e6f7420696e206d616e75666163747572696e6720737461604482015261676560f01b606482015260840161079e565b811561373a576000838152600960205260409020600501829055613759565b6005541561375957600083815260096020526040902060016005909101555b6000838152600960209081526040808320600701805460ff19166003908117909155600d9092529182902042818301819055600490910181905591513392869260008051602061454d83398151915292610e13929061430d565b604051806101200160405280600081526020016060815260200160608152602001600081526020016000815260200160008152602001600081526020016000600581111561380357613803613d15565b8152602001600081525090565b60008060006060848603121561382557600080fd5b505081359360208301359350604090920135919050565b6000806000806080858703121561385257600080fd5b5050823594602084013594506040840135936060013592509050565b80356001600160a01b038116811461388557600080fd5b919050565b60006020828403121561389c57600080fd5b6138a58261386e565b9392505050565b6000602082840312156138be57600080fd5b5035919050565b634e487b7160e01b600052604160045260246000fd5b600082601f8301126138ec57600080fd5b813567ffffffffffffffff80821115613907576139076138c5565b604051601f8301601f19908116603f0116810190828211818310171561392f5761392f6138c5565b8160405283815286602085880101111561394857600080fd5b836020870160208301376000602085830101528094505050505092915050565b60008060006060848603121561397d57600080fd5b6139868461386e565b9250602084013567ffffffffffffffff808211156139a357600080fd5b6139af878388016138db565b935060408601359150808211156139c557600080fd5b506139d2868287016138db565b9150509250925092565b600080600080600060a086880312156139f457600080fd5b6139fd8661386e565b9450602086013567ffffffffffffffff80821115613a1a57600080fd5b613a2689838a016138db565b95506040880135915080821115613a3c57600080fd5b613a4889838a016138db565b94506060880135915080821115613a5e57600080fd5b613a6a89838a016138db565b93506080880135915080821115613a8057600080fd5b50613a8d888289016138db565b9150509295509295909350565b6000815180845260005b81811015613ac057602081850181015186830182015201613aa4565b506000602082860101526020601f19601f83011685010191505092915050565b8581526001600160a01b038516602082015260a060408201819052600090613b0a90830186613a9a565b8281036060840152613b1c8186613a9a565b9150508260808301529695505050505050565b60008060008060008060c08789031215613b4857600080fd5b863567ffffffffffffffff80821115613b6057600080fd5b613b6c8a838b016138db565b97506020890135915080821115613b8257600080fd5b613b8e8a838b016138db565b9650604089013595506060890135915080821115613bab57600080fd5b50613bb889828a016138db565b9350506080870135915060a087013590509295509295509295565b602081528151602082015260006020830151613bfa60408401826001600160a01b03169052565b506040830151610100806060850152613c17610120850183613a9a565b91506060850151601f1980868503016080870152613c358483613a9a565b935060808701519150808685030160a0870152613c528483613a9a565b935060a08701519150808685030160c087015250613c708382613a9a565b92505060c085015160e085015260e0850151613c8f8286018215159052565b5090949350505050565b60006101408c8352806020840152613cb38184018d613a9a565b90508281036040840152613cc7818c613a9a565b905089606084015288608084015282810360a0840152613ce78189613a9a565b9150508560c08301528460e0830152836101008301528215156101208301529b9a5050505050505050505050565b634e487b7160e01b600052602160045260246000fd5b60068110613d4957634e487b7160e01b600052602160045260246000fd5b9052565b60006101208b8352806020840152613d678184018c613a9a565b90508281036040840152613d7b818b613a9a565b9150508760608301528660808301528560a08301528460c0830152613da360e0830185613d2b565b826101008301529a9950505050505050505050565b602080825282518282018190526000919060409081850190868401855b82811015613e045781518051855286810151878601528501518585015260609093019290850190600101613dd5565b5091979650505050505050565b8881526001600160a01b038816602082015261010060408201819052600090613e3c8382018a613a9a565b90508281036060840152613e508189613a9a565b90508281036080840152613e648188613a9a565b905082810360a0840152613e788187613a9a565b60c0840195909552505090151560e0909101529695505050505050565b600080600060608486031215613eaa57600080fd5b833567ffffffffffffffff80821115613ec257600080fd5b613ece878388016138db565b94506020860135915080821115613ee457600080fd5b50613ef1868287016138db565b925050604084013590509250925092565b602081528151602082015260006020830151610120806040850152613f2b610140850183613a9a565b91506040850151601f19858403016060860152613f488382613a9a565b92505060608501516080850152608085015160a085015260a085015160c085015260c085015160e085015260e0850151610100613f8781870183613d2b565b959095015193019290925250919050565b60008060408385031215613fab57600080fd5b50508035926020909101359150565b602081528151602082015260006020830151610140806040850152613fe3610160850183613a9a565b91506040850151601f19808685030160608701526140018483613a9a565b935060608701516080870152608087015160a087015260a08701519150808685030160c0870152506140338382613a9a565b92505060c085015160e085015260e0850151610100818187015280870151915050610120818187015280870151915050613c8f8286018215159052565b600080600080600060a0868803121561408857600080fd5b853567ffffffffffffffff808211156140a057600080fd5b6140ac89838a016138db565b965060208801359150808211156140c257600080fd5b6140ce89838a016138db565b95506040880135945060608801359150808211156140eb57600080fd5b506140f8888289016138db565b95989497509295608001359392505050565b6020815260006138a56020830184613a9a565b60208082526022908201527f4f6e6c79206f776e65722063616e20706572666f726d2074686973206163746960408201526137b760f11b606082015260800190565b602080825260129082015271125b9d985b1a59081c1c9bd91d58dd08125160721b604082015260600190565b602080825260139082015272125b9d985b1a59081b585d195c9a585b081251606a1b604082015260600190565b60208082526025908201527f43616e6e6f742061737369676e206d6174657269616c73206174207468697320604082015264737461676560d81b606082015260800190565b60208082526014908201527305175616e74697479206d757374206265203e20360641b604082015260600190565b634e487b7160e01b600052601160045260246000fd5b818103818111156142545761425461422b565b92915050565b602080825260119082015270125b9d985b1a59081d995b991bdc881251607a1b604082015260600190565b808201808211156142545761425461422b565b6000600182016142aa576142aa61422b565b5060010190565b80820281158282048414176142545761425461422b565b60208082526025908201527f596f7520617265206e6f7420612072656769737465726564206d616e756661636040820152643a3ab932b960d91b606082015260800190565b6040810161431b8285613d2b565b8260208301529392505050565b60208082526021908201527f596f7520617265206e6f74206120726567697374657265642072657461696c656040820152603960f91b606082015260800190565b600181811c9082168061437d57607f821691505b60208210810361439d57634e487b7160e01b600052602260045260246000fd5b50919050565b601f8211156143ed57600081815260208120601f850160051c810160208610156143ca5750805b601f850160051c820191505b818110156143e9578281556001016143d6565b5050505b505050565b815167ffffffffffffffff81111561440c5761440c6138c5565b6144208161441a8454614369565b846143a3565b602080601f831160018114614455576000841561443d5750858301515b600019600386901b1c1916600185901b1785556143e9565b600085815260208120601f198616915b8281101561448457888601518255948401946001909101908401614465565b50858210156144a25787850151600019600388901b60f8161c191681555b5050505050600190811b01905550565b6040815260006144c56040830185613a9a565b90508260208301529392505050565b6080815260006144e76080830187613a9a565b6020830195909552506040810192909252606090910152919050565b6060815260006145166060830186613a9a565b6020830194909452506040015291905056fe50726f647563742043726561746564202d204177616974696e67204d6174657269616c73d35079bd9f0d87556b38c1165117ccd975a6b3c2dd3c85342d8c02343bde1d9f4d6174657269616c732041737369676e6564202d20526561647920666f72204d616e75666163747572696e67a2646970667358221220a57ebb8f07edd21655bd0d70d8a9782396251db698c13458939175984fe0cbca64736f6c63430008130033",
  "linkReferences": {},
  "deployedLinkReferences": {}
}