{
  "_format": "hh-sol-artifact-1",
  "contractName": "SupplyChain",
  "sourceName": "contracts/SupplyChain.sol",
  "abi": [
    {
      "inputs": [],
      "stateMutability": "nonpayable",
      "type": "constructor"
    },
    {
      "inputs": [
        {
          "internalType": "uint256",
          "name": "",
          "type": "uint256"
        }
      ],
      "name": "DIS",
      "outputs": [
        {
          "internalType": "address",
          "name": "addr",
          "type": "address"
        },
        {
          "internalType": "uint256",
          "name": "id",
          "type": "uint256"
        },
        {
          "internalType": "string",
          "name": "name",
          "type": "string"
        },
        {
          "internalType": "string",
          "name": "place",
          "type": "string"
        }
      ],
      "stateMutability": "view",
      "type": "function"
    },
    {
      "inputs": [
        {
          "internalType": "uint256",
          "name": "_productID",
          "type": "uint256"
        }
      ],
      "name": "Distribute",
      "outputs": [],
      "stateMutability": "nonpayable",
      "type": "function"
    },
    {
      "inputs": [
        {
          "internalType": "uint256",
          "name": "",
          "type": "uint256"
        }
      ],
      "name": "MAN",
      "outputs": [
        {
          "internalType": "address",
          "name": "addr",
          "type": "address"
        },
        {
          "internalType": "uint256",
          "name": "id",
          "type": "uint256"
        },
        {
          "internalType": "string",
          "name": "name",
          "type": "string"
        },
        {
          "internalType": "string",
          "name": "place",
          "type": "string"
        }
      ],
      "stateMutability": "view",
      "type": "function"
    },
    {
      "inputs": [
        {
          "internalType": "uint256",
          "name": "_productID",
          "type": "uint256"
        }
      ],
      "name": "Manufacturing",
      "outputs": [],
      "stateMutability": "nonpayable",
      "type": "function"
    },
    {
      "inputs": [],
      "name": "Owner",
      "outputs": [
        {
          "internalType": "address",
          "name": "",
          "type": "address"
        }
      ],
      "stateMutability": "view",
      "type": "function"
    },
    {
      "inputs": [
        {
          "internalType": "uint256",
          "name": "",
          "type": "uint256"
        }
      ],
      "name": "ProductStock",
      "outputs": [
        {
          "internalType": "uint256",
          "name": "id",
          "type": "uint256"
        },
        {
          "internalType": "string",
          "name": "name",
          "type": "string"
        },
        {
          "internalType": "string",
          "name": "description",
          "type": "string"
        },
        {
          "internalType": "uint256",
          "name": "RMSid",
          "type": "uint256"
        },
        {
          "internalType": "uint256",
          "name": "MANid",
          "type": "uint256"
        },
        {
          "internalType": "uint256",
          "name": "DISid",
          "type": "uint256"
        },
        {
          "internalType": "uint256",
          "name": "RETid",
          "type": "uint256"
        },
        {
          "internalType": "enum SupplyChain.STAGE",
          "name": "stage",
          "type": "uint8"
        }
      ],
      "stateMutability": "view",
      "type": "function"
    },
    {
      "inputs": [
        {
          "internalType": "uint256",
          "name": "",
          "type": "uint256"
        }
      ],
      "name": "RET",
      "outputs": [
        {
          "internalType": "address",
          "name": "addr",
          "type": "address"
        },
        {
          "internalType": "uint256",
          "name": "id",
          "type": "uint256"
        },
        {
          "internalType": "string",
          "name": "name",
          "type": "string"
        },
        {
          "internalType": "string",
          "name": "place",
          "type": "string"
        }
      ],
      "stateMutability": "view",
      "type": "function"
    },
    {
      "inputs": [
        {
          "internalType": "uint256",
          "name": "",
          "type": "uint256"
        }
      ],
      "name": "RMS",
      "outputs": [
        {
          "internalType": "address",
          "name": "addr",
          "type": "address"
        },
        {
          "internalType": "uint256",
          "name": "id",
          "type": "uint256"
        },
        {
          "internalType": "string",
          "name": "name",
          "type": "string"
        },
        {
          "internalType": "string",
          "name": "place",
          "type": "string"
        }
      ],
      "stateMutability": "view",
      "type": "function"
    },
    {
      "inputs": [
        {
          "internalType": "uint256",
          "name": "_productID",
          "type": "uint256"
        }
      ],
      "name": "RMSsupply",
      "outputs": [],
      "stateMutability": "nonpayable",
      "type": "function"
    },
    {
      "inputs": [
        {
          "internalType": "uint256",
          "name": "_productID",
          "type": "uint256"
        }
      ],
      "name": "Retail",
      "outputs": [],
      "stateMutability": "nonpayable",
      "type": "function"
    },
    {
      "inputs": [
        {
          "internalType": "address",
          "name": "_address",
          "type": "address"
        },
        {
          "internalType": "string",
          "name": "_name",
          "type": "string"
        },
        {
          "internalType": "string",
          "name": "_place",
          "type": "string"
        }
      ],
      "name": "addDistributor",
      "outputs": [],
      "stateMutability": "nonpayable",
      "type": "function"
    },
    {
      "inputs": [
        {
          "internalType": "address",
          "name": "_address",
          "type": "address"
        },
        {
          "internalType": "string",
          "name": "_name",
          "type": "string"
        },
        {
          "internalType": "string",
          "name": "_place",
          "type": "string"
        }
      ],
      "name": "addManufacturer",
      "outputs": [],
      "stateMutability": "nonpayable",
      "type": "function"
    },
    {
      "inputs": [
        {
          "internalType": "string",
          "name": "_name",
          "type": "string"
        },
        {
          "internalType": "string",
          "name": "_description",
          "type": "string"
        }
      ],
      "name": "addProduct",
      "outputs": [],
      "stateMutability": "nonpayable",
      "type": "function"
    },
    {
      "inputs": [
        {
          "internalType": "address",
          "name": "_address",
          "type": "address"
        },
        {
          "internalType": "string",
          "name": "_name",
          "type": "string"
        },
        {
          "internalType": "string",
          "name": "_place",
          "type": "string"
        }
      ],
      "name": "addRMS",
      "outputs": [],
      "stateMutability": "nonpayable",
      "type": "function"
    },
    {
      "inputs": [
        {
          "internalType": "address",
          "name": "_address",
          "type": "address"
        },
        {
          "internalType": "string",
          "name": "_name",
          "type": "string"
        },
        {
          "internalType": "string",
          "name": "_place",
          "type": "string"
        }
      ],
      "name": "addRetailer",
      "outputs": [],
      "stateMutability": "nonpayable",
      "type": "function"
    },
    {
      "inputs": [],
      "name": "disCtr",
      "outputs": [
        {
          "internalType": "uint256",
          "name": "",
          "type": "uint256"
        }
      ],
      "stateMutability": "view",
      "type": "function"
    },
    {
      "inputs": [],
      "name": "manCtr",
      "outputs": [
        {
          "internalType": "uint256",
          "name": "",
          "type": "uint256"
        }
      ],
      "stateMutability": "view",
      "type": "function"
    },
    {
      "inputs": [],
      "name": "productCtr",
      "outputs": [
        {
          "internalType": "uint256",
          "name": "",
          "type": "uint256"
        }
      ],
      "stateMutability": "view",
      "type": "function"
    },
    {
      "inputs": [],
      "name": "retCtr",
      "outputs": [
        {
          "internalType": "uint256",
          "name": "",
          "type": "uint256"
        }
      ],
      "stateMutability": "view",
      "type": "function"
    },
    {
      "inputs": [],
      "name": "rmsCtr",
      "outputs": [
        {
          "internalType": "uint256",
          "name": "",
          "type": "uint256"
        }
      ],
      "stateMutability": "view",
      "type": "function"
    },
    {
      "inputs": [
        {
          "internalType": "uint256",
          "name": "_productID",
          "type": "uint256"
        }
      ],
      "name": "showStage",
      "outputs": [
        {
          "internalType": "string",
          "name": "",
          "type": "string"
        }
      ],
      "stateMutability": "view",
      "type": "function"
    },
    {
      "inputs": [
        {
          "internalType": "uint256",
          "name": "_productID",
          "type": "uint256"
        }
      ],
      "name": "sold",
      "outputs": [],
      "stateMutability": "nonpayable",
      "type": "function"
    }
  ],
  "bytecode": "0x60806040526000600155600060025560006003556000600455600060055534801561002957600080fd5b50600080546001600160a01b031916331790556115718061004b6000396000f3fe608060405234801561001057600080fd5b50600436106101425760003560e01c8063857ddb04116100b8578063b4a99a4e1161007c578063b4a99a4e1461028c578063ca2efb55146102b7578063cc403069146102ca578063dd286398146102dd578063e101a2e0146102e6578063eef5cb401461030657600080fd5b8063857ddb041461023757806386c182751461024a5780639c03facb1461025d578063a48d335a14610270578063aaea34aa1461028357600080fd5b8063438e9c4d1161010a578063438e9c4d146101c55780634def474a146101ce5780635573d8b2146101e157806359bf286f146102085780636a992c9f1461021b5780637e43d94d1461022e57600080fd5b80632a4af440146101475780632b0187ac1461015c5780632b70b08d146101885780632bdb2e6b1461019b5780633d753a1c146101b2575b600080fd5b61015a61015536600461119c565b610319565b005b61016f61016a36600461121e565b6103d0565b60405161017f949392919061127d565b60405180910390f35b61015a61019636600461119c565b610513565b6101a460045481565b60405190815260200161017f565b61015a6101c036600461121e565b6105ae565b6101a460035481565b61015a6101dc36600461121e565b610646565b6101f46101ef36600461121e565b6106d7565b60405161017f9897969594939291906112d7565b61016f61021636600461121e565b61082c565b61015a61022936600461119c565b61085e565b6101a460055481565b61015a61024536600461119c565b6108f8565b61015a61025836600461121e565b610992565b61015a61026b36600461121e565b610a20565b61015a61027e36600461121e565b610ac8565b6101a460015481565b60005461029f906001600160a01b031681565b6040516001600160a01b03909116815260200161017f565b61015a6102c5366004611351565b610b59565b61016f6102d836600461121e565b610cae565b6101a460025481565b6102f96102f436600461121e565b610ce0565b60405161017f91906113b5565b61016f61031436600461121e565b610f22565b6000546001600160a01b0316331461033057600080fd5b60048054906000610340836113cf565b9091555050604080516080810182526001600160a01b0385811682526004546020808401828152848601888152606086018890526000938452600990925294909120835181546001600160a01b031916931692909217825592516001820155915190919060028201906103b3908261147b565b50606082015160038201906103c8908261147b565b505050505050565b6009602052600090815260409020805460018201546002830180546001600160a01b03909316939192610402906113f6565b80601f016020809104026020016040519081016040528092919081815260200182805461042e906113f6565b801561047b5780601f106104505761010080835404028352916020019161047b565b820191906000526020600020905b81548152906001019060200180831161045e57829003601f168201915b505050505090806003018054610490906113f6565b80601f01602080910402602001604051908101604052809291908181526020018280546104bc906113f6565b80156105095780601f106104de57610100808354040283529160200191610509565b820191906000526020600020905b8154815290600101906020018083116104ec57829003601f168201915b5050505050905084565b6000546001600160a01b0316331461052a57600080fd5b6002805490600061053a836113cf565b9091555050604080516080810182526001600160a01b038581168252600280546020808501828152858701898152606087018990526000938452600790925295909120845181546001600160a01b031916941693909317835593516001830155925191929091908201906103b3908261147b565b6000811180156105c057506001548111155b6105c957600080fd5b60006105d433610f54565b9050600081116105e357600080fd5b600360008381526006602052604090206007015460ff16600581111561060b5761060b6112c1565b1461061557600080fd5b600082815260066020819052604090912090810182905560070180546004919060ff19166001835b02179055505050565b60008111801561065857506001548111155b61066157600080fd5b600061066c33610fc4565b90506000811161067b57600080fd5b600260008381526006602052604090206007015460ff1660058111156106a3576106a36112c1565b146106ad57600080fd5b60008281526006602052604090206005810182905560070180546003919060ff191660018361063d565b600660205260009081526040902080546001820180549192916106f9906113f6565b80601f0160208091040260200160405190810160405280929190818152602001828054610725906113f6565b80156107725780601f1061074757610100808354040283529160200191610772565b820191906000526020600020905b81548152906001019060200180831161075557829003601f168201915b505050505090806002018054610787906113f6565b80601f01602080910402602001604051908101604052809291908181526020018280546107b3906113f6565b80156108005780601f106107d557610100808354040283529160200191610800565b820191906000526020600020905b8154815290600101906020018083116107e357829003601f168201915b505050600384015460048501546005860154600687015460079097015495969295919450925060ff1688565b600a602052600090815260409020805460018201546002830180546001600160a01b03909316939192610402906113f6565b6000546001600160a01b0316331461087557600080fd5b60038054906000610885836113cf565b9091555050604080516080810182526001600160a01b0385811682526003546020808401828152848601888152606086018890526000938452600890925294909120835181546001600160a01b031916931692909217825592516001820155915190919060028201906103b3908261147b565b6000546001600160a01b0316331461090f57600080fd5b6005805490600061091f836113cf565b9091555050604080516080810182526001600160a01b0385811682526005546020808401828152848601888152606086018890526000938452600a90925294909120835181546001600160a01b031916931692909217825592516001820155915190919060028201906103b3908261147b565b6000811180156109a457506001548111155b6109ad57600080fd5b60006109b83361102b565b9050600081116109c757600080fd5b60008281526006602052604081206007015460ff1660058111156109ed576109ed6112c1565b146109f757600080fd5b60008281526006602052604090206003810182905560070180546001919060ff1916828061063d565b600081118015610a3257506001548111155b610a3b57600080fd5b6000610a4633610f54565b905060008111610a5557600080fd5b600082815260066020819052604090912001548114610a7357600080fd5b600460008381526006602052604090206007015460ff166005811115610a9b57610a9b6112c1565b14610aa557600080fd5b600082815260066020526040902060070180546005919060ff191660018361063d565b600081118015610ada57506001548111155b610ae357600080fd5b6000610aee33611092565b905060008111610afd57600080fd5b600160008381526006602052604090206007015460ff166005811115610b2557610b256112c1565b14610b2f57600080fd5b60008281526006602052604090206004810182905560070180546002919060ff191660018361063d565b6000546001600160a01b03163314610b7057600080fd5b6000600254118015610b8457506000600354115b8015610b9257506000600454115b8015610ba057506000600554115b610ba957600080fd5b60018054906000610bb9836113cf565b919050555060405180610100016040528060015481526020018381526020018281526020016000815260200160008152602001600081526020016000815260200160006005811115610c0d57610c0d6112c1565b905260018054600090815260066020908152604090912083518155908301519091820190610c3b908261147b565b5060408201516002820190610c50908261147b565b50606082015181600301556080820151816004015560a0820151816005015560c0820151816006015560e08201518160070160006101000a81548160ff02191690836005811115610ca357610ca36112c1565b021790555050505050565b6008602052600090815260409020805460018201546002830180546001600160a01b03909316939192610402906113f6565b6060600060015411610cf157600080fd5b60008281526006602052604081206007015460ff166005811115610d1757610d176112c1565b03610d4757505060408051808201909152600f81526e141c9bd91d58dd0813dc99195c9959608a1b602082015290565b600160008381526006602052604090206007015460ff166005811115610d6f57610d6f6112c1565b03610dad57505060408051808201909152601981527f526177204d6174657269616c20537570706c7920537461676500000000000000602082015290565b600260008381526006602052604090206007015460ff166005811115610dd557610dd56112c1565b03610e095750506040805180820190915260138152724d616e75666163747572696e6720537461676560681b602082015290565b600360008381526006602052604090206007015460ff166005811115610e3157610e316112c1565b03610e64575050604080518082019091526012815271446973747269627574696f6e20537461676560701b602082015290565b600460008381526006602052604090206007015460ff166005811115610e8c57610e8c6112c1565b03610eb957505060408051808201909152600c81526b52657461696c20537461676560a01b602082015290565b600560008381526006602052604090206007015460ff166005811115610ee157610ee16112c1565b03610f0e57505060408051808201909152600c81526b141c9bd91d58dd0814dbdb1960a21b602082015290565b505060408051602081019091526000815290565b6007602052600090815260409020805460018201546002830180546001600160a01b03909316939192610402906113f6565b60008060055411610f6457600080fd5b60015b6005548111610fbb576000818152600a60205260409020546001600160a01b03808516911603610fa9576000908152600a602052604090206001015492915050565b80610fb3816113cf565b915050610f67565b50600092915050565b60008060045411610fd457600080fd5b60015b6004548111610fbb576000818152600960205260409020546001600160a01b038085169116036110195760009081526009602052604090206001015492915050565b80611023816113cf565b915050610fd7565b6000806002541161103b57600080fd5b60015b6002548111610fbb576000818152600760205260409020546001600160a01b038085169116036110805760009081526007602052604090206001015492915050565b8061108a816113cf565b91505061103e565b600080600354116110a257600080fd5b60015b6003548111610fbb576000818152600860205260409020546001600160a01b038085169116036110e75760009081526008602052604090206001015492915050565b806110f1816113cf565b9150506110a5565b634e487b7160e01b600052604160045260246000fd5b600082601f83011261112057600080fd5b813567ffffffffffffffff8082111561113b5761113b6110f9565b604051601f8301601f19908116603f01168101908282118183101715611163576111636110f9565b8160405283815286602085880101111561117c57600080fd5b836020870160208301376000602085830101528094505050505092915050565b6000806000606084860312156111b157600080fd5b83356001600160a01b03811681146111c857600080fd5b9250602084013567ffffffffffffffff808211156111e557600080fd5b6111f18783880161110f565b9350604086013591508082111561120757600080fd5b506112148682870161110f565b9150509250925092565b60006020828403121561123057600080fd5b5035919050565b6000815180845260005b8181101561125d57602081850181015186830182015201611241565b506000602082860101526020601f19601f83011685010191505092915050565b60018060a01b03851681528360208201526080604082015260006112a46080830185611237565b82810360608401526112b68185611237565b979650505050505050565b634e487b7160e01b600052602160045260246000fd5b60006101008a83528060208401526112f18184018b611237565b90508281036040840152611305818a611237565b9150508660608301528560808301528460a08301528360c08301526006831061133e57634e487b7160e01b600052602160045260246000fd5b8260e08301529998505050505050505050565b6000806040838503121561136457600080fd5b823567ffffffffffffffff8082111561137c57600080fd5b6113888683870161110f565b9350602085013591508082111561139e57600080fd5b506113ab8582860161110f565b9150509250929050565b6020815260006113c86020830184611237565b9392505050565b6000600182016113ef57634e487b7160e01b600052601160045260246000fd5b5060010190565b600181811c9082168061140a57607f821691505b60208210810361142a57634e487b7160e01b600052602260045260246000fd5b50919050565b601f82111561147657600081815260208120601f850160051c810160208610156114575750805b601f850160051c820191505b818110156103c857828155600101611463565b505050565b815167ffffffffffffffff811115611495576114956110f9565b6114a9816114a384546113f6565b84611430565b602080601f8311600181146114de57600084156114c65750858301515b600019600386901b1c1916600185901b1785556103c8565b600085815260208120601f198616915b8281101561150d578886015182559484019460019091019084016114ee565b508582101561152b5787850151600019600388901b60f8161c191681555b5050505050600190811b0190555056fea2646970667358221220e8a665248caf6fd458b6e6aa789eac615e2f4709eebd370364f8169bb41c19e164736f6c63430008130033",
  "linkReferences": {},
  "deployedLinkReferences": {}
}